:1003EB001204707F051203C07F051203587F05129C
:1003FB00038C7F0512027F7F051200E87F05120038
:08040B00037F051201BF80DB35
:0201BF008F0AA5
:1001C100E4F50BE50BC3950A400302027E7590FF2F
:1001D10075A0FF7580FF7F147E00120413C284C2D4
:1001E100967F5E7E01120413C2A7C286C282C280BC
:1001F100C297C2957FFA7E00120413D2A7D286D28B
:1002010082D280D297D2957FFA7E00120413C287E0
:10021100C285C283C281C297C2957FFA7E00120451
:1002210013D287D285D283D281D297D2957FFA7E9B
:1002310000120413C2A7C286C282C280C2967FFA8C
:100241007E00120413D2A7D286D282D280D2967FA8
:10025100FA7E00120413C287C285C283C281C2968C
:100261007FFA7E00120413D287D285D283D281D243
:0D027100967FFA7E00120413050B0201C4F3
:01027E00225D
:020003008F0A62
:10000500E4F50BE50BC3950A40030200E4E4F59023
:1000150075A0FF7580FF7F5E7E01120413C284C246
:10002500837F5E7E01120413C286D2837F5E7E01CA
:10003500120413C287D2867F5E7E01120413C2A703
:10004500D2877F5E7E01120413C285D2A77F5E7EB2
:1000550001120413C282D2857F5E7E01120413C28F
:1000650081D2827F5E7E01120413C280D2817F5EBF
:100075007E0112041375A0FF7580FF7F5E7E01125D
:100085000413C284C2807F5E7E01120413C281D232
:10009500807F5E7E01120413C282D2817F5E7E0163
:1000A500120413C285D2827F5E7E01120413C2A799
:1000B500D2857F5E7E01120413C287D2A77F5E7E42
:1000C50001120413C286D2877F5E7E01120413C219
:1000D50083D2867F5E7E01120413050B020008E4BD
:0200E500FEFF1C
:0100E70022F6
:0200E8008F0A7D
:1000EA00E4F50BE50BC3950A40030201BBE4F59066
:1000FA0075A0FF7580FF7F5E7E01120413C2847FA4
:10010A005E7E01120413C2837F5E7E01120413C253
:10011A00867F5E7E01120413C2877F5E7E0112040F
:10012A0013C2A77F5E7E01120413C2857F5E7E0121
:10013A00120413C2827F5E7E01120413C2817F5EA3
:10014A007E01120413C2807F5E7E0112041375A021
:10015A00FF7580FF7F5E7E01120413C2807F5E7E80
:10016A0001120413C2817F5E7E01120413C2827FD0
:10017A005E7E01120413C2857F5E7E01120413C2E1
:10018A00A77F5E7E01120413C2877F5E7E0112047E
:10019A0013C2867F5E7E01120413C2837F5E7E01D4
:1001AA00120413C2847F5E7E01120413050B02003F
:0401BA00EDE4FEFF73
:0101BE00221E
:02027F008F0AE4
:10028100E4F50BE50BC3950A505EE4F59075A0FF0C
:100291007580FFC2807F847E03120413C2817F2098
:1002A1007E03120413C2827FBC7E02120413C28534
:1002B1007F587E02120413C2A77FF47E0112041339
:1002C100C2877F907E01120413C2867F2C7E0112A9
:1002D1000413C2837FC87E00120413C2847F847E0C
:0B02E10003120413050B809BE4FEFFDA
:0102EC0022EF
:0202ED008F0878
:1002EF00E4F509E509C39508505EE4F59075A0FFA4
:1002FF007580FFC2807F5E7E01120413C2817F5E14
:10030F007E01120413C2827F5E7E01120413C28328
:10031F007F5E7E01120413C2847F5E7E011204137E
:10032F00C2857F5E7E01120413C2867F5E7E01123C
:10033F000413C2877F5E7E01120413C2A77F5E7E05
:08034F00011204130509809B53
:010357002283
:0A0470007590FF75A0FF7580FF2254
:020358008F0A0A
:10035A00E4F50BE50BC3950A5027E4F5A0F5807583
:10036A0090FFC2957F5E7E01120413C2967F5E7E65
:10037A0001120413C2977F5E7E01120413050B80DB
:01038A00D2A0
:01038B00224F
:02038C008F0AD6
:10038E00E4F50BE50BC3950A5027E4F5A0F580754F
:10039E0090FFC2977F5E7E01120413C2967F5E7E2F
:1003AE0001120413C2957F5E7E01120413050B80A9
:0103BE00D26C
:0103BF00221B
:0203C0008F0AA2
:1003C200E4F5A0F580F50BE50BC3950A5017E4F5AB
:1003D200907F14FE1204137590FF7F147E001204A6
:0803E20013050B80E2E4FEFFAD
:0103EA0022F0
:0E044800EF1FAC0670011E4C70F6E4FEFF22A2
:10041300E4FDFCC3ED9FEC9E5015E4FBFA0BBB001F
:10042300010AEB647D4A70F50DBD00010C80E4E424
:02043300FEFFCA
:0104350022A4
:0E0456007C037DE8120436120413E4FEFF223C
:0300000002046493
:0C046400787FE4F6D8FD75810B0203EBF5
:10043600EF8DF0A4A8F0CF8CF0A428CE8DF0A42EDA
:02044600FE2294
:00000001FF
