:0304610001120085
:100170001204167F3D7E0412036212047402023FD1
:1001800012044F8F12E51212011D020630020A31CD
:10019000020E32021233021634021A35021E3602E1
:1001A0002237022638022A3901DB4202394401D9BA
:1001B0004601E04C01E55202485301F45501FB565B
:1001C00001EA57024A58022E7101F97502007601C0
:1001D000EF7702507800000180806F12044680A003
:1001E00012042B809B120434809612046B809112AF
:1001F000046E808C120457808780471204718080BF
:10020000120474020180E4FF80267F0A80227F149A
:10021000801E7F1E801A7F2880167F3280127F3CCE
:10022000800E7F46800A7F5080067F5A80027F645E
:100230001202E21204650201801204221204681202
:10024000046E12045C020180800612043D020180EB
:06025000120422020180ED
:10036200C2A5C2A45389F0438901D2A9D2AF8E0E8D
:100372008F0FE50EC313F50AE50F13F50BC3E50F57
:10038200950BF509E50E950AF508AE0AAF0BAB071A
:10039200AA06E4C39BFFE49AFE74019400FDE49470
:1003A20000FC78081201098F10E4C39BFFE48F114F
:1003B200AE08AF09AB07AA06C39BFFE49AFE74011D
:1003C2009400FDE49400FC78081201098F0CE4C348
:0B03D2009BFF8F0D85108C85118A2287
:03046500D28C2214
:03046800C28C2221
:1002E200EF7007C2A5C2A4C2A922BF6407D2A5D2D9
:1002F200A4C2A922AC0EAD0F7E00120143E47B64BE
:10030200FAF9F81200778E0A8F0BC3E50F950BF5F9
:1003120009E50E950AF508AB07AA06E4C39BFFE4BC
:100322009AFE74019400FDE49400FC78081201091D
:100332008F10E4C39BFFE48F11AE08AF09AB07AA8D
:1003420006C39BFFE49AFE74019400FDE49400FC52
:1003520078081201098F0CE4C39BFF8F0DD2A922EA
:03000B00020401EB
:10040100B2A4B2A520A407850C8C850D8A32851073
:050411008C85118A3208
:0C041600438920758DFD759850D28E2210
:080003008F993099FDC299228A
:07044F003098FDC298AF993F
:010456002283
:0603DD008B138A14891540
:1003E300E4FDFCAB13AA14A9158D828C8312000EB5
:0D03F300FF600A1200030DBD00010C80E642
:0104000022D9
:03046B00C2A62204
:03046E00D2A622F1
:05045700C287C28622ED
:05045C00D287D28622C8
:09042200C2A0C2A1C2A2C2A32221
:09042B00C2A2C2A3D2A1C2A02208
:09043400C2A0C2A1D2A3C2A222FF
:09043D00D2A1D2A3C2A0C2A222E6
:09044600C2A1C2A3D2A0D2A222DD
:03047100D2A722ED
:03047400C2A722FA
:03000000020256A3
:0C025600787FE4F6D8FD75811502029D4A
:10000E00BB010CE58229F582E5833AF583E02250A7
:10001E0006E92582F8E622BBFE06E92582F8E222F1
:0D002E00E58229F582E5833AF583E493220B
:10003B0075F008758200EF2FFFEE33FECD33CDCC7C
:10004B0033CCC58233C5829BED9AEC99E5829840FF
:10005B000CF582EE9BFEED9AFDEC99FC0FD5F0D6DC
:10006B00E4CEFBE4CDFAE4CCF9A88222B800C1B906
:10007B000059BA002DEC8BF084CFCECDFCE5F0CB44
:10008B00F97818EF2FFFEE33FEED33FDEC33FCEB7D
:10009B0033FB10D703994004EB99FB0FD8E5E4F938
:1000AB00FA227818EF2FFFEE33FEED33FDEC33FC25
:1000BB00C933C910D7059BE99A4007EC9BFCE99A19
:1000CB00F90FD8E0E4C9FAE4CCFB2275F010EF2F5E
:1000DB00FFEE33FEED33FDCC33CCC833C810D7075E
:1000EB009BEC9AE899400AED9BFDEC9AFCE899F899
:0E00FB000FD5F0DAE4CDFBE4CCFAE4C8F9222C
:10010900E86010ECA2E713FCED13FDEE13FEEF130C
:04011900FFD8F022F9
:10011D00D083D082F8E4937012740193700DA3A371
:10012D0093F8740193F5828883E473740293686085
:06013D00EFA3A3A380DF85
:10014300EC8EF0A4CCC5F0CCCDF8EFA4CEC5F02D49
:10015300FDE43CFCE8A42EC8C5F03DFDE43CFCEF07
:0D016300A4FFE5F028FEE43DFDE43CFC2295
:10026200020170E493A3F8E493A34003F68001F241
:1002720008DFF48029E493A3F85407240CC8C3339D
:10028200C4540F4420C8834004F456800146F6DF6C
:10029200E4800B0102040810204080900461E47E97
:1002A200019360BCA3FF543F30E509541FFEE49361
:1002B200A360010ECF54C025E060A840B8E493A328
:1002C200FAE493A3F8E493A3C8C582C8CAC583CA53
:1002D200F0A3C8C582C8CAC583CADFE9DEE780BE0B
:010464000097
:00000001FF
